:020000040000FA
:10000000FCFF0000090100000000000000000000EB
:1000100000000000000000000000000000000000E0
:1000200000000000000000000000000000000000D0
:1000300000000000000000000000000000000000C0
:100040000D0100001501000000000000000000008C
:1000500000000000000000000000000000000000A0
:100060000000000000000000000000000000000090
:100070000000000000000000000000000000000080
:1000800000F002F800F030F80CA030C8083824184E
:100090002D18A246671EAB4654465D46AC4201D1C0
:1000A00000F022F87E460F3E0FCCB64601263342C2
:1000B00000D0FB1AA246AB4633431847C0010000EC
:1000C000D00100000023002400250026103A01D3AF
:1000D00078C1FBD8520700D330C100D50B60704700
:1000E0001FB51FBD10B510BD00F095F81146FFF704
:1000F000F7FF00F04EF800F0ADF803B4FFF7F2FFA1
:1001000003BC00F0B3F80000074800470FB500F04B
:100110001AF80FBD0FB500F011F80FBD03480449E0
:10012000044A054B7047000081000000F002000007
:10013000F0220000F0120000F01200000120572110
:100140000906C8607047012055210906C86088600B
:10015000022048600520086070472A485721090698
:10016000086003208860012080032749086003207D
:1001700026490860FF202B2149068880002008803E
:10018000C880888055210906C8608860486008607A
:100190007047FFF7E2FF2B20400600884008400030
:1001A0002B21490608800846008802218843801CCC
:1001B0002B214906088008460088042188432B210A
:1001C00049060880084600880821884308302B210A
:1001D0004906088008460088102188432B214906DB
:1001E0000880084600882021884320302B214906BA
:1001F000088006E0082055210906C860886048602C
:100200000860F7E780F0FA0200E400E000E100E0B7
:10021000704770477047754600F024F8AE460500F9
:1002200069465346C008C000854618B020B5FFF7A0
:1002300075FF60BC00274908B6460026C0C5C0C58A
:10024000C0C5C0C5C0C5C0C5C0C5C0C5403D4900CA
:100250008D46704710B50446C046C0462046FFF79D
:100260004CFF10BD004870478C0200000149182067
:10027000ABBEFEE726000200704700008C020000C3
:0C0280008C02000064200000C40000009C
:0400000500000109ED
:00000001FF
